:0200000410FFEB
:20FFFC00FFFFFFFF10020018B5000011BD000011ED0200110000000000000000000000002B
:020000041100E9
:20001C0000000000000000000000000000000000C1000011C300001100000000000000001E
:20003C00D1040011C7000011C7000011C7000011C7000011C7000011C7000011C7000011D6
:20005C00C7000011C7000011C7000011C7000011C7000011C7000011C7000011C7000011C4
:20007C000000000000000000C7000011C7000011C7000011C7000011C7000011C700001154
:20009C00C70000110348854600F014F800480047F1050011100200180448804704480047F4
:2000BC00FEE7FEE7FEE7FEE7FEE7FEE7E1040011A1000011064C0125064E05E0E36807CC4F
:2000DC002B430C3C98471034B442F7D3FFF7DEFF5006001170060011F8B501202B498002E6
:2000FC00886100204861C861086248628862C86208634863254C264A40342260234B254A17
:20011C00C0339A60244A6260244ADA60244A1A601A61C86088601D4A80321062506290625C
:20013C00D062D863206220636063A063E063106050609060D060106150619061D0615063F1
:20015C001063A062174DE860174EF06116484030026A5208520002628A69012002438A611E
:20017C000A6802430A600027FF20F53000F064F800F008FA7F1CBFB2142FF5D30020C0435F
:20019C00E062A860C007F061F8BD0000004000403F3F2C2CEFEF43432C2C2C73434343733F
:2001BC007373737300410040005000500748064981617F21C16105480549803001600549FA
:2001DC00C1600549416070470104000000C0014825BF6F9DE4E9E9EBD4D4C80010B514490B
:2001FC00002008827D2212018A8028220A8188810F4A203A90821083908308800C49203106
:20021C0008830B4B403318808883888208800882E524A4010C8188800549603108800548B8
:20023C00988102209882402090800002908010BD20C0004095BF0000282148430C4A81B22D
:20025C00906980B2884208D3411A89B293698B4202D993698342F9D370475369091A591AE2
:20027C0089B293698342FCD390698842FCD8704700E000E008480022826008490162C314AA
:20029C00C3604162026181624261C16283610163C16103494160704700000140FFFF000023
:2002BC005E8C000070470000074806490162016989B20161416A054A11404162416889B2A7
:2002DC00416070470303000000400240F8FF000070470000104900200860486230228A62AB
:2002FC00CA62086348638863C8630C4AD0610D4A0B4B536190620C4B53621062074A803A27
:20031C0050610A4A106050609060D06010615061074A1060C8617047005000504051005038
:20033C00000F000300600050FF03FF0300E400E000E100E070477047704700000648054995
:20035C004163064A0021D160054A3021D16231218163704731313131004000508051005006
:20037C000050005009490020C860372212040A628860064940310861044AC032D0600320A8
:20039C00C862024908208031C8627047004000500A490020486088600861C860486188615C
:2003BC000860486288620863C8624863886308620249403148600861C8607047008002481A
:2003DC00F0B572B62548416A0226B1434162234898228030C2620027C763A823C362C262FF
:2003FC001E4940310C6BC0252C430C63C362C26210240463C362C262A0244C60C362C262E9
:20041C00F4018C60C3624C6834434C604C680825AC432D022C434C604C680425AC432D02CE
:20043C002C434C604C68E407FCD0C2620F63C3620A4C256835432560094C8C61C2624C6964
:20045C0001252C434C61C36200BFC2624A69520852004A61C36262B6F0BD000000500050A2
:20047C000113000006487F214163022181638021C163034801214030016000210161704776
:20049C00805000500448002242600121416013230361026041607047004002480448002201
:2004BC00426001214160132303610260416070470060024802480168491C0160704700008D
:2004DC000800001810B5FFF77BFF00F02FF810BD7047704710B5FFF7C5FFFFF743FFFFF7AC
:2004FC00FBFDFFF763FEFFF779FEFFF7C3FEFFF721FFFFF7D7FEFFF7D7FEFFF71CFFFFF7BA
:20051C001BFFFFF71BFFFFF743FFFFF7BBFFFFF7C5FFFFF7DEFFFFF7DBFF00F005F800F073
:20053C0004F8FFF7D7FE10BD704770470C480B49416100218161026904231A430261026993
:20055C0002231A430261026901231A430261054A3F2050630448416001707047409C0000F9
:20057C0000E000E0006000500400001880070349000E4863024901200870704700600050FC
:20059C00040000180849094B4A6800209A4202D80A78012A06D1064A3F2050630020486048
:2005BC00087001207047000004000018BB0200000060005002E008C8121F08C1002AFAD1A5
:2005DC0070477047002001E001C1121F002AFBD170470000FFF77EFF72B601200D4909686D
:2005FC0088470D490028086011D072B60120FFF7BDFF0B4A094C1268012120469047094A78
:20061C000121126820469047FFF7BCFF62B6FFF7B9FFFCE74806001100000018686886C6F8
:20063C00440600114C06001105010000090100003701000070060011000000180C000000ED
:20065C00D00500117C0600110C00001804020000E0050011000000000000000000000000E5
:20067C00FFFFFFFFFFFFFFFFFFFFFFFFFFFFFFFFFFFFFFFFFFFFFFFFFFFFFFFFFFFFFFFF7E
:20069C00FFFFFFFFFFFFFFFFFFFFFFFFFFFFFFFFFFFFFFFFFFFFFFFFFFFFFFFFFFFFFFFF5E
:2006BC00FFFFFFFFFFFFFFFFFFFFFFFFFFFFFFFFFFFFFFFFFFFFFFFFFFFFFFFFFFFFFFFF3E
:2006DC00FFFFFFFFFFFFFFFFFFFFFFFFFFFFFFFFFFFFFFFFFFFFFFFFFFFFFFFFFFFFFFFF1E
:200FFC00FFFFFFFF48050018C9100011D11000112D15001100000000000000000000000045
:20101C0000000000000000000000000000000000D5100011D71000110000000000000000C6
:20103C0089190011DB100011DB100011DB100011DB100011DB100011DB100011DB100011FD
:20105C00DB100011DB100011DB100011291A0011DB100011DB100011DB100011DB1000113C
:20107C000000000000000000DB100011DB100011DB100011DB100011DB100011DB1000116C
:20109C00DB1000110348854600F03AF80048004735320011480500180248006885460248CD
:2010BC000068004700400011044000110448804704480047FEE7FEE7FEE7FEE7FEE7FEE7BB
:2010DC009D190011A11000110549064A08685043054A801808604008704701490860704713
:2010FC00B80000186D4EC641393000000321001D401E037812021A43491EF9D5104670470C
:20111C00064C0125064E05E0E36807CC2B430C3C98471034B442F7D3FFF7B8FF3039001124
:20113C0050390011F8B501202B498002886100204861C861086248628862C862086348631C
:20115C00254C264A40342260234B254AC0339A60244A6260244ADA60244A1A601A61C8606F
:20117C0088601D4A8032106250629062D062D863206220636063A063E063106050609060B1
:20119C00D060106150619061D06150631063A062174DE860174EF06116484030026A5208A1
:2011BC00520002628A69012002438A610A6802430A600027FF20F53000F05EF900F028FD31
:2011DC007F1CBFB2142FF5D30020C043E062A860C007F061F8BD0000004000403F3F2C2C4C
:2011FC00EFEF43432C2C2C7343434373737373730041004000500050054908B5800040186C
:20121C00006869468005800D0880088808BD000050C001480748064981617F21C1610548C4
:20123C000549803001600549C1600549416070470104000000C0014825BF6F9DE4E9E9EB7F
:20125C00D4D4C800F8B540484049808B002788420FD13F494888401E0004000C488008D101
:20127C003C48C76102F0BCF8012000F0C5FCFFF713FF394D687E012865D12E46E03E307C1D
:20129C00012839D13774F06170693449884204D071692D48203081422ED13148C1682A489A
:2012BC001C30884774690AE02D48816820468847002801D0F7610BE0012000032418706928
:2012DC00B1694018A04203D91F481F308442EBD91D4C203408E02248C168204688470028ED
:2012FC0001D0F76108E080347069B1694018A04202D91C488442EED9287B012805D12F73D0
:20131C0015486038006F80472875287E01281AD12F7613480A2142691170426951700E4A14
:20133C000121A03A11704169074802221C3001F0BBFF72B6BFF34F8F0C490B48C860BFF3C6
:20135C004F8F00BFFDE7F8BDE0BF00110B0B0000000000180050005014030018004000113D
:20137C0008000018FFCF00110400FA0500ED00E010B5144903200882FA20888028200881C0
:20139C00002088810F4A203A90821083908308800C49203108830B4B40331880888388826E
:2013BC0008800882E524A4010C818880054960310880054898810220988240209080000241
:2013DC00908010BD20C0004095BF000010B50146012000F0ADF910BD10B50146002000F0F4
:2013FC00A7F910BD10B50146022000F0A1F910BD70470000FEB50025ED431D480027019003
:20141C0029E01B48F900403808180090466C00F0FFFB002418E03078002807D0FF2805D0C8
:20143C005A2803D0A52801D05A214840290A45402806820D0F480D468058761C4540A005E7
:20145C0001D100F0E5FB641C0098806CA042E2D87F1C0198FFB24078B842D2D80448403031
:20147C00806E6D1CE84201D10120FEBD0020FEBD7402001824350011282148430C4A81B2D1
:20149C00906980B2884208D3411A89B293698B4202D993698342F9D370475369091A591A90
:2014BC0089B293698342FCD390698842FCD8704700E000E008480022826008490162C31458
:2014DC00C3604162026181624261C16283610163C16103494160704700000140FFFF0000D1
:2014FC005E8C000070470000074806490162016989B20161416A054A11404162416889B255
:20151C00416070470303000000400240F8FF000070470000124900200860486230228A6256
:20153C00CA62086301224A638863C8630D4AD0610E4A0D4B536190620D4B53621062094A62
:20155C00803A50610B4A106050609060D060106150610120084A800210604005C8617047C3
:20157C000050005040510050000F000300600050FF03FF0300E400E000E100E0002804D087
:20159C00012803D0022809D022207047044800785A2801D033207047002070471220704756
:2015BC0034020018024600200F2A0AD2D3009A1A064BD218012905D0022905D0032900D186
:2015DC00D0787047507870479078704740340011064A0021CB005B1AD35C834201D1C8B23C
:2015FC007047491C0F29F5DBFF2070474034001101490120087070470600001810B5054C82
:20161C002068C00705D000F00DFEA06801210843A06010BD0000024807480168062291434F
:20163C00016001684906490F0129FAD10021C160026002484261704700E001488050005097
:20165C0070B5104900200A6804231A430A600E4D0E4A0F4C2B46083341004118515C012945
:20167C0002D0142902D002E0E56000E02361401CC0B20228F0D300F019FC064800688047A5
:20169C0070BD00000040004828000018200000189C0000184000001870B5184C2078401C78
:2016BC0020706078401C6070A078401CA07020780025002802D0257000F014FB60780428A7
:2016DC0015D365706068401C606000F0E7FBA0600006000E03D00A486560057005E07D2086
:2016FC0061684001814200D3606000F03DFDA078202802D3A57001F0E1F970BD9C0000184E
:20171C003D00001870477047064805494163064A0021D160054A3021D16237218163704742
:20173C0031313137004000508051005000500050F8B504461848174E00780F4601281ED1D1
:20175C000020FFF759FDD22819D9144D0020E861012000F051FA002C04D0012C05D0022CBF
:20177C0008D10EE038460E4901E00E49384609688847064600F04CFA0120C007E861304692
:20179C00F8BD0A4C00232468802207493846A047EFE70000FFFF000006000018005000508A
:2017BC0028390011243900113C0100182C3900110A490020C860372212040A6288600749B4
:2017DC00802240310A61054AC032D0600320C862024908208031C86270470000004000501C
:2017FC000B490020486088600861C86048618861086010224A6288620863C862486388634B
:20181C0008620349403148600861C8607047000000800248F0B572B62548416A0226B143CA
:20183C004162234898228030C2620027C763A823C362C2621E4940310C6BC0252C430C6379
:20185C00C362C26210240463C362C262A0244C60C362C262F4018C60C3624C6834434C60A9
:20187C004C680825AC432D022C434C604C680425AC432D022C434C604C68E407FCD0C2628D
:20189C000F63C3620A4C256835432560094C8C61C2624C6901252C434C61C36200BFC26250
:2018BC004A69520852004A61C36262B6F0BD0000005000500113000006487F2141630221AF
:2018DC0081638021C163034801214030016000210161704780500050044800224260012179
:2018FC0041601323036102604160704700400248044800224260012141601323036102607E
:20191C00416070470060024803480178491C01704178491C4170704704000018104A0028EB
:20193C0007D0802805D0782803D0372801D0002013E010780B49C300C95C401C0A4BC0B29A
:20195C001A2906D09B7A022B02D11739062904D37047596B9B6A9942FAD310707047000088
:20197C0038000018AC3400113402001810B5FFF7CBFF02480168491C016010BDB400001825
:20199C0010B5FFF747FF00F017F910BD70470000064805498160016114214160002101606F
:2019BC000221C161704700003CF600000040004810B5FFF781FFFFF7FBFEFFF7B3FBFFF791
:2019DC0029FCFFF7D5FCFFF775FDFFF725FEFFF789FDFFF789FDFFF795FEFFF794FEFFF77F
:2019FC0093FEFFF7FDFEFFF777FFFFF781FFFFF7CFFFFFF7CBFF00F029F800F03FF8FFF7B5
:201A1C0089FD10BD10B5FFF747FE10BD10B50C48406BC00707D00B4C2068C00703D0FFF7B9
:201A3C00EDFD0120A060084CE069800706D52068000603D5FFF7E6FF8020A06110BD0000D1
:201A5C00005000500000024800400048094870210160094900228A6082220A610622CA60F6
:201A7C0001228A608168114381608168022211438160704700000248805000507047000005
:201A9C0070B50C78222C79D0484D312C26D006DC102C0BD0112C57D0272C5BD114E0342CD2
:201ABC003CD0362C3FD0372C54D14BE04978022904D0032904D0012904D048E0142349E094
:201ADC00012347E00C2345E04978012902D0022902D03CE015233DE016233BE0344C4B7889
:201AFC00661E012B02D0032B0CD030E08B78C9781B025918A14201D117232BE0B14226D178
:201B1C001C2327E08B78C9781B025918A14201D118231FE0B1421AD11D231BE0497800299F
:201B3C0015D1192316E06B6BAC6AA34208D31F4B20331B7E49788B4202D10178491E0170BD
:201B5C001A2307E01B2305E04978012901D0122070BD0B23174C0021CE00A65D9E4203D0D1
:201B7C00491CC9B20F29F7D3C9000E197678964205D0615C1A2902D0132070BD13E0A97A94
:201B9C00022910D10178C900615C0A46183A052A09D8994207D01C2901D1192B01D024204A
:201BBC00EBE7082101700020E7E7000034020018FFDF0000AC3400110C480B494161002127
:201BDC008161026904231A430261026902231A430261026901231A430261054A3F205063B5
:201BFC000448416001707047409C000000E000E000600050B000001880070349000E486314
:201C1C00024901200870704700600050B00000180849094B4A6800209A4202D80A78012ABB
:201C3C0006D1064A3F205063002048600870012070470000B0000018BB0200000060005002
:201C5C0030B47446641E2578641CAB4200D21D46635D5B00E31830BC184702E008C8121FC5
:201C7C0008C1002AFAD170477047002001E001C1121F002AFBD1704710B54B780C78190254
:201C9C0002462143537814781A0249BA4B084B40DB0089084B4099B222439323002052BA9F
:201CBC005940914200D1012010BD000070B50C4E3078800712D5F41FA079401CC0B2A0713D
:201CDC000A280BD30C2809D30025A57000F08EFB3078FD2108403070A571A57070BD00000F
:201CFC004F00001810B508490878C20704D040084000087000F00AF80348007A002801D07E
:201D1C0000F0B0F810BD000048000018F8B5374DFB27A9782846EE1D407800240B00FFF718
:201D3C008FFF070F050C10344D4F4D00552802D000F0F6FA42E0022021E0AC7000F0C2FF64
:201D5C00F8BD2B492B4B0A782979571AFB18587033780E273B433370AC718A4203D1EA7838
:201D7C00142A0ED06C816A898018020A8018C0B26881491E0806000E2871E1D10420A870AA
:201D9C00F8BD1C4A12786A81EDE7A97AC943C9B26981884208D0184800783C2801D100F08F
:201DBC0039FA00F023FB01E000F020FF3078FD2108403840F72108403070AC71AC70F8BD62
:201DDC000C490C31097AAC70814208D00748401D017889088900017000F008FB01E000F0A7
:201DFC00E7FF307838403070F8BD00004800001857000018300300185500001870B5154A61
:201E1C001178531F8807800F022810D1124801244476124C0625A07A114E9D7075682D0A26
:201E3C002D0205437560207288088000107010788007800F01280BD1084C052098700C3CAC
:201E5C00A17A601C085C00F00DFBA07A401CA07270BD00004D000018140300183C030018D3
:201E7C00000002480B4A107A401EC1B20A481172401840785389C018030AC018C0B250818B
:201E9C00002905D10449C0430C3188720020508170470000480000183003001802490022E0
:201EBC0008880A80704700005A00001810B500F02BFE002010BD000003480168012292028D
:201EDC00914301600020704700E100E00348016801229202114301607047000000E100E081
:201EFC0030B50D48A521017000218170017401240246E0325476094B03620346084D80337B
:201F1C005D660546403569701173064D1D6711768472C181C17230BD340200183C0100186C
:201F3C000800001811140011F8B54E4C2046468F2746207A3C370834102807D161780329E2
:201F5C0004D1494A00211170A5213970FFF740FBFF280FD0B97AFFF725FBFFF70FFB054621
:201F7C00332808D12078102805D16078022802D0002500E011253B483C30C089002801D02B
:201F9C0037250AE0002D08D120783E2805D0F2B221463548FFF774FD0546324F20783C3F38
:201FBC007860002D47D131281CD008DC102810D011282ED0222835D0272808D10DE03428B0
:201FDC001BD036281DD0372820D03E2825D0112533E0607800F0B2FA2BE06078A11C00F0B8
:201FFC0045FB26E0A078E1780002401881B223796078621D00F0BAFB1BE0E01C00F04AFCBC
:20201C0017E06078A11C00F0ADFC12E000F018FD0FE0607800F0C2FA0BE03146204600F05D
:20203C002BFD06E06078A1780002401880B200F0CFFA050011D0802D0FD07F2038722078ED
:20205C0078720949BD72032048800849096800F01DF82846FFF762FCF8BD024900203C31F8
:20207C008881F6E7F8010018380000183C34001110B5054B1A78140705D0120912011A702D
:20209C005A1E9161506110BD81000018F0B58C463049314B09781C78FD25002249072C4022
:2020BC00002906DAF720044000201C70D91E08614EE0294E294FB61E357829462D072D0F17
:2020DC00B84208D90809012801D820353570F72004401C70F0BD35701F4C6146E41E21612D
:2020FC001D4E1F4C367802273E4324781D4FC5B206281AD93C70040A10273C43194F7C7032
:20211C003C46A5708D5CA718521CD2B2FD70052AF8D31149C91E401FC880052088810020D5
:20213C008870082006431E70F0BD3C707D70824201D28C5C00E0FF24BD18521CD2B2AC70E1
:20215C00062AF4D308200643034900201E70C91EC880F0BD5600001883000018FF0F00000E
:20217C00660000187500001810B500F003F8FFF79DFD10BD10B522490878C20704D0400896
:20219C004000087000F076FE1E4B1F4C18781F4A010701D4410725D52188491C89B2218031
:2021BC001B4CA14220D901070AD511780C09012C03D80907090F50311170F5210840187023
:2021DC00C0B2410710D511780C07240F012C03D809090901C91C117040084000FB210840FF
:2021FC00187001E00020208010780109012903D80007000F012801D900F010FE10BD00001F
:20221C0056000018830000185E00001881000018BA1300000249F52208781040087070475C
:20223C008300001870B5FFF747FE1F4908801F494A681F4C62700968254649072A78C90F9A
:20225C00FB2389001A400A432A70FFF73FFE1948102201880126114301802878410700291E
:20227C0006DB00F0C3F86078002800D1A67070BDA1780022052904D00029F8D03043287069
:20229C0070BD0D486178007A884209D00848A270401D017889088900017000F0A7F870BD2B
:2022BC00FFF7ACFD70BD00005C00001800000248480000185A0000183C03001870B51649CB
:2022DC00002408780D4640084000C006C00E08706C70EC7011482C71847244604472047065
:2022FC000472481D0470AC71861C6C810B4A2C72002034700C3A1454401CC0B20B28FAD394
:20231C00204640210843307000F00AF83078BF2108403070AC7070BD480000183C0300188D
:20233C0010B5234900200860086880229043086008684022104308601E48826852085200F2
:20235C00826082680E239A438260C26852095201D21DC2608222026183680122134383606E
:20237C0042613823436243690624A3434361086810231843086010480168930219430160C5
:20239C000C488038416B11434163416B0222914341630A4801681943016009488168FF2256
:2023BC0012049143052212058918816010BD0000000002488050005000E100E000E200E09D
:2023DC0000E400E0074A02231170074A1171D07003209070D01D017819430170002090719C
:2023FC0070470000570000184800001870B5FFF763FD164D164C28802078010701D4400797
:20241C001CD514490122087A02234008400010430872114801791943017110490888030A9C
:20243C0002D00423184308800D48007848700B8813430B803C2801D100F0F0FC2078F321ED
:20245C00084020702888FFF741FD70BD5C0000184F00001828000018600000185A00001872
:20247C00550000180B4A0C4910724B681B0A1B0203434B601078401EC1B21170074A10780E
:20249C0080088000002902D0401C10707047801CFBE700003C030018000002484D00001806
:2024BC00F8B50F4614461E4900221E4D4A720523AB700C701A4E1C490C3E0C70142806D090
:2024DC006A81FFF7F9FC19490880002107E030786881F6E77A5C7318491C5A7089B2A142FC
:2024FC00F8D3FFF7F3FC0E4A1078401EC1B22972701840786B89C018030AC018C0B2688178
:20251C00002901D1C04390727078FFF7ABFF05490120B072C91D0878042210430870F8BD7A
:20253C003C03001848000018570000185C00001801490020887070474800001870B5002423
:20255C000125134B0246012806D0A520022A06D0032A04D0122419E000F0CCFA01E0DD72B7
:20257C00187000211974DD620948E030017301769A725021FF3859380172997A41720549B2
:20259C000220488004490968FFF780FD204670BD34020018380000183C34001110B508493C
:2025BC0051220A724872074902204880064900240968FFF76BFD054801210176204610BDC1
:2025DC00BC010018380000183C3400111403001870B503461F4800241A181F48214620D021
:2025FC00032A05D0042A0BD0052A12D031242FE01A4A4618555C491CF5720529F9D318E00E
:20261C00164A0C3A555C4618491CF5720929F9D30FE0134A4618555C491CF5720629F9D3FD
:20263C0007E00E4A183A555C4618491CF5720929F9D3002C0CD1622202721A0A4272837246
:20265C00C91C88B20749488007490968FFF71EFD204670BD200EFFFFBC010018F8CF0011E9
:20267C00F8C30011380000183C340011F8B50024394E05462746012803D0022D2BD0122435
:20269C0067E030785A280DD034488069FEF725FD0027FEF719FD0146F019C170C17800293F
:2026BC000CD00EE02C4A0020783A3118CF701118401CC0B28F720228F7D325E0C178491CD5
:2026DC00C170C17824487838C0197F1CFFB28172022FDED318E0F078002802D13079002832
:2026FC0015D000200A5C3318DA71401CC0B20228F8D3F11CF01DFFF7BFFA002809D0B77009
:20271C005A203070F7703771002C0ED021E02420F8BDB078401CB070B078022803D310484C
:20273C00F0813620F8BD3524ECE70B4867217838017245720B48012D02D0022D02D003E0E9
:20275C00042100E002214180074940880968FFF79DFC2046F8BD00003402001800E000E033
:20277C00E2040000380000183C340011F8B507460020009041480E4608180421404D1446D3
:20279C00002843D0012877D13E48012F02D0032F42D133E03B48807A022801D1062028705A
:2027BC001046FEF7A3FC00BA000AE1780002084334494861201DFEF799FC00BA000AE1799E
:2027DC00000208432F498861084640692E49884252D32C4948698A6980182C4A401E90427B
:2027FC004AD8012008740020C86140314870B83908734B2048730620688025E0C269002A92
:20281C0002D10121C16132E069801DE01D48E030012F03D0032F27D01220F8BDA1781A06CC
:20283C0011432278637812041B021A431143154A8032916600210175F83A11733221517363
:20285C0006216980012101730E487121783801724772310A8172C6720D4801686888FFF7E8
:20287C0015FC0098F8BD07E0007D012801D07220F8E700202870C7E73120F3E70220FFFF5E
:20289C00380000183402001800400011FFCF00113C34001170B50446FEF728FC00BA000A81
:2028BC00E17800022A4D08436862201DFEF71EFC00BA000AE17900020843A862686A254914
:2028DC00884206D3686AA96A40182349401E884201D9312070BD1E487421783801722021B1
:2028FC004172002484722D21C1721C49042048801B490968FFF7CAFB6C632C631448203083
:20291C0004760120E862124940314A78002A04D16A6A6A64AA6AAA6448704878002813D0E2
:20293C00686A4A78D2005219D26B90420CD0686A4A78D20052195064A86A4A78D200521929
:20295C0090644878401C48702046EC630C7070BD3402001800400011FFCF00113800001867
:20297C003C340011F8B5044632480027027EA24252D004760546203D286B401CC0B2A04237
:20299C0001D07320F8BD00205A230A5C002A06D0FF2A04D05A2A02D0A52A00D05A402E6ADB
:2029BC003254401CC0B22B28EFD3686BA96A88422DD2686B2B306863686BA96A0126884213
:2029DC0006D2696A286B2B2250430818296A0DE0184820300670A86A696B401A2B30696A89
:2029FC00C2B2286B2B2358430818296A00F05CFC002802D00020E86200E0EE62E86A0028C2
:202A1C0007D0286B401C2863002F05D010E04320F8BDEE627220F8BD06487621983801727E
:202A3C00447205490220488004490968FFF72EFB3846F8BD54020018380000183C3400113D
:202A5C0010B50A480024416B806A814201D2222010BD06497720783908720549012048809C
:202A7C0004490968FFF712FB204610BD34020018380000183C34001110B50024022901D042
:202A9C00132010BD4178002901D080290DD008487E21017200214172064902204880064923
:202ABC000968FFF7F3FA204610BD8024FBE70000BC010018380000183C34001100B50B4A3D
:202ADC00907A012807D09089411C91810849884201D300F00FF8D089002806D0D089401E54
:202AFC00D081D089002800D1907000BD340200187102000003480021818101218172A52150
:202B1C000170704734020018F8B5FFF7D7FB00F085F9324A002011465081142312310B7087
:202B3C008B7134234B7012238B707823CB7056230B714871FF2111705070911D0880091FF8
:202B5C0008701081D0700022CF1C254DBF26500013182249E85C091D08708107C90F04463A
:202B7C004C404107C90F4C40C106C90F4C40A1013040014388070C076040CC0660408C063A
:202B9C006040C00FC0434906C001490E08433870124CE854002059190C341B190C5C1C54D5
:202BBC00401CC0B20328F9D3521CD2B2022ACED30A4A00201932FF21134608331154195430
:202BDC00401CC0B20828F9D3064A07490020135C0B54401CC0B21028F9D3F8BD540000188E
:202BFC00200000182434001128000018F8B52D4F2A4C2B4A39882378042008431278022548
:202C1C00294EFB2B16D0FF2B34D0090A00D038807A70388828433880FFF74EF92349308026
:202C3C000E78082E2ED82278224B0021D200204FD21825E0090A00D038807A7038882843AE
:202C5C003880FFF739F9194930800C78082C0AD80021194B164A04E055186D785D54491C9B
:202C7C00C9B2A142F8D3FFF731F914480122017811430170F8BD7B185B785354491CC9B290
:202C9C00B142F8D3FFF722F92078410041180C480818417829434170F8BD000054000018AC
:202CBC00550000185A0000185C0000185700001830030018280000186D00001856000018B8
:202CDC0060000018F8B5044600202F492F4E304A304D0C7007463C2C16D07D2C1BD0BF2CC7
:202CFC003DD0FE2C3BD02C4D00214B00CB18EB5C2746A3423CD148001170081841194A7803
:202D1C00D0092DD014202CE0FB20107034706F7608210D2029E021480178012914D1077096
:202D3C001C48E0380774C1622F732F76A5210170022181721A4950220A72807A4872194863
:202D5C0001680220FFF7A2F917480078800706D534706F76082215490D20FFF7A1FBF8BD7D
:202D7C000D20D207FBD137708978FFF72BFBF8BDFF23491CC9B213700229B6D30028F6D1C4
:202D9C00FFF7D6FBF8BD0000550000183003001854000018140300186000001800000018B8
:202DBC00BC0100183C340011830000187500001810B515490888020A02D0042210430880E7
:202DDC0012480222007848700B88114C13430B80E178814207D10F490B7A5B085B000B724C
:202DFC002179114321717D2801D100F0F5F90A480078022806D24100401800194178FD228C
:202E1C001140417010BD00005A0000185500001860000018280000185400001830B5124984
:202E3C0011200870491E0020C880088148818870086188814861CB1C88611A78FD245208BC
:202E5C0052002240FB242240F7252A401207120F1A70064A08711080054A137823401370BE
:202E7C000870012030BD0000810000185E00001856000018F8B5B64AB64E1078B41E651EA5
:202E9C007E280AD03178F5231940317021780907090F103121700021E980B04BFB221B7813
:202EBC00AD491340AA4A09785278884205D07F2803D0A94FBF79B84209D1170907D1A44F66
:202EDC00BF78B03F072F02D8A44803701DE1884201D07F283FD11109A14F090104D01029D0
:202EFC003AD02029F6D17DE03968322008809D4801683868FFF7BCF8696900292BD0AA6923
:202F1C00002AFBD092480B8840780007000F834221D3954F00233B8008808D4F184604E044
:202F3C003B189B781354401CC0B20B788342F7D82078010703D100090001401C2070012038
:202F5C0028703078FB214008400008403070834802780A4002709FE03968322008808148C5
:202F7C0001683868FFF784F87948417880780907090D0143062973D96869002870D0AA6917
:202F9C00002A6DD003888B4221D3774F00233B80724B04271B783B43704F3B7001806C4F1F
:202FBC0000203B18DB781354401CC0B20528F8D338782871491F298130780121084300078B
:202FDC00000F0421103008433070052054E0207800090001801C2070307840084000000718
:202FFC00000F56E03178CF0756D02F79B84245D112070809120F904240D15B4A0027178082
:20301C00288906280BD9801F28810120014308070909000F491C06220901084314E00246D6
:20303C004808400000072F81000F4C4930700B702178FB270B0703D109090901491C2170BB
:20305C000121884329703840307068898446801800906969098888421ED80020AF6908E090
:20307C001AE03B4909188B7861460918401C7B54C0B29042F5D3009868810DE02078020784
:20309C00120F012A03D800090001001D207048084000FB21084030702D4F38787E2829D1D6
:2030BC003078C10731D180072FD478780007000F06282AD86969002927D0AB69002B24D09D
:2030DC00088000203E4604E0321892781A54401CC0B20A788242F7D82078010703D10009A2
:2030FC000001401C20701B49FB22087840084000104008703878002807D11C4808220188AF
:20311C00114301801A490120087020780007000F01281BD111480078400717D42878012833
:20313C0014D1002028700A480B4900780978884203D07F2801D07E2808D10A480068007871
:20315C00B038082802D30B4840688047F8BD00006D000018830000186600001856000018E3
:20317C0038340011343400115E0000185A0000183C00001840000018F0B5144C1449A0782F
:20319C00144A401C0007000FA070097811702021084350700020A1892569FF23E688B0428B
:2031BC0004D24618AE5D1718BE7003E01618B3700026E680401CC0B20628EFD3E088002849
:2031DC0003D0801FE080891DA181F0BD80000018660000187500001810B50D490020088026
:2031FC000C48C088002802D0FFF7C6FF10BD0949491C0878020903D10007000F10300870B1
:20321C000449F522C91C08781040087010BD00005E000018800000180024FEF7C9FBFEF754
:20323C000FFA184800688047174F0025174E3D703570FEF7EDFC30780428FAD33570002C48
:20325C0002D0FDF7FFFFF4E711481249808B884210D11149C97A01290CD038781428E8D9F9
:20327C000E48C56100F0BCF80120FEF7C5FCFDF713FFDEE70A4901248842DAD10949012010
:20329C000870D6E7080000180500001804000018E0BF00110A0A00003402001800500050D2
:2032BC000B0B000000000018F8B5002714460D46002A6CD04649C96B002904D14449C86364
:2032DC00444A002151700119491E8C46C909C309C901DB01404A00918B4224D100203D4E43
:2032FC0006E071782B5C5354491C401C7170C0B2A042F6D360460027C043400647D172B6A0
:20331C000120FEF779FC324CE06B344D00232D6872783149A847C7B2FEF77AFC62B6002095
:20333C00E063707033E04006400E80210E1A0020284F07E0284A79782B5C5354491C401C0E
:20335C007970C0B2B042F5D372B60120FEF754FC1F48C06B1F49214F4A783F6800231E4951
:20337C00B847C7B2FEF754FC62B619490098C8631849002048701849164B06E05878AA5D7F
:20339C000A54401C761C5870F6B2A642F6D3104840300178002918D0002404700D4D687880
:2033BC00002810D072B60120FEF726FC0848C06B0A4E002336686A780749B047C7B2FEF75E
:2033DC0027FC62B66C700248C4633846F8BD00003402001806000018BC0000182C39001160
:2033FC000321074A0648C906A03208C8904208C1FBD30448016A89088900491C01627047C4
:20341C0000400011005000500000FFFFFFFFFFFF0000FEFFFFFFFFFF000200183202001846
:20343C00C4010018100100010100011102000002000027020000020202280202000202000B
:20345C003E00000000000085020200020200220000000202022E020101020202140002000F
:20347C00000200190002000002002F02020102020231020101020202340201020202023627
:20349C000201020202023702010202020200000001020000030000001502000001000000A5
:2034BC00160400000200000014020000020000001502000001000000160400000200000088
:2034DC00170D0000FFDF010018040000FFDF0300190B0000000000001A0000000000000092
:2034FC001B010000000000001C080000FEDF01001D040000FEDF03000B0200000100000083
:20351C000C0200000100000000000000963007772C610EEEBA51099919C46D078FF46A7058
:20353C0035A563E9A395649E3288DB0EA4B8DC791EE9D5E088D9D2972B4CB609BD7CB17E97
:20355C00072DB8E7911DBF906410B71DF220B06A4871B9F3DE41BE847DD4DA1AEBE4DD6DE7
:20357C0051B5D4F4C785D38356986C13C0A86B647AF962FDECC9658A4F5C0114D96C066337
:20359C00633D0FFAF50D088DC8206E3B5E10694CE44160D5727167A2D1E4033C47D4044B77
:2035BC00FD850DD26BB50AA5FAA8B5356C98B242D6C9BBDB40F9BCACE36CD832755CDF4517
:2035DC00CF0DD6DC593DD1ABAC30D9263A00DE518051D7C81661D0BFB5F4B42123C4B35607
:2035FC009995BACF0FA5BDB89EB802280888055FB2D90CC624E90BB1877C6F2F114C685877
:20361C00AB1D61C13D2D66B69041DC760671DB01BC20D2982A10D5EF8985B1711FB5B606A4
:20363C00A5E4BF9F33D4B8E8A2C9077834F9000F8EA8099618980EE1BB0D6A7F2D3D6D08B6
:20365C00976C6491015C63E6F4516B6B62616C1CD83065854E0062F2ED95066C7BA5011B86
:20367C00C1F4088257C40FF5C6D9B06550E9B712EAB8BE8B7C88B9FCDF1DDD62492DDA15D6
:20369C00F37CD38C654CD4FB5861B24DCE51B53A7400BCA3E230BBD441A5DF4AD795D83DF6
:2036BC006DC4D1A4FBF4D6D36AE96943FCD96E34468867ADD0B860DA732D0444E51D033376
:2036DC005F4C0AAAC97C0DDD3C710550AA41022710100BBE86200CC925B56857B3856F2066
:2036FC0009D466B99FE461CE0EF9DE5E98C9D9292298D0B0B4A8D7C7173DB359810DB42E56
:20371C003B5CBDB7AD6CBAC02083B8EDB6B3BF9A0CE2B6039AD2B1743947D5EAAF77D29DD9
:20373C001526DB048316DC73120B63E3843B64943E6A6D0DA85A6A7A0BCF0EE49DFF099345
:20375C0027AE000AB19E077D44930FF0D2A3088768F2011EFEC206695D5762F7CB676580F5
:20377C0071366C19E7066B6E761BD4FEE02BD3895A7ADA10CC4ADD676FDFB9F9F9EFBE8E25
:20379C0043BEB717D58EB060E8A3D6D67E93D1A1C4C2D83852F2DF4FF167BBD16757BCA605
:2037BC00DD06B53F4B36B248DA2B0DD84C1B0AAFF64A0336607A0441C3EF60DF55DF67A8C5
:2037DC00EF8E6E3179BE69468CB361CB1A8366BCA0D26F2536E2685295770CCC03470BBBD5
:2037FC00B91602222F260555BE3BBAC5280BBDB2925AB42B046AB35CA7FFD7C231CFD0B5E5
:20381C008B9ED92C1DAEDE5BB0C2649B26F263EC9CA36A750A936D02A906099C3F360EEB96
:20383C008567077213570005824ABF95147AB8E2AE2BB17B381BB60C9B8ED2920DBED5E524
:20385C00B7EFDC7C21DFDB0BD4D2D38642E2D4F1F8B3DD686E83DA1FCD16BE815B26B9F654
:20387C00E177B06F7747B718E65A0888706A0FFFCA3B06665C0B0111FF9E658F69AE62F884
:20389C00D3FF6B6145CF6C1678E20AA0EED20DD75483044EC2B30339612667A7F71660D084
:2038BC004D476949DB776E3E4A6AD1AEDC5AD6D9660BDF40F03BD83753AEBCA9C59EBBDE64
:2038DC007FCFB247E9FFB5301CF2BDBD8AC2BACA3093B353A6A3B4240536D0BA9306D7CD74
:2038FC002957DE54BF67D9232E7A66B3B84A61C4021B685D942B6F2A37BE0BB4A18E0CC304
:20391C001BDF055A8DEF022D2101000027010000290100005039001100000018BC000000A5
:20393C00761C00110C3A0011BC0000188C040000861C00110000DC05000000000D16001145
:20395C000D140011F5130011E9130011011400113C01001801800814810800000000FFFF54
:20397C00FFFFFFFF0000FEFFFFFFFFFF0000000000000000FD1E0011451F00110000000095
:20399C0000000000000000000000000000000000000000000000000000000000000000000B
:2039BC000000000000000000000000000000000000000000000000000000000000000000EB
:2039DC000000000000000000000000000000000000000000000000000000000000000000CB
:2039FC0000000000000000000000000000000000FFFFFFFFFFFFFFFFFFFFFFFFFFFFFFFFBB
:203A1C00FFFFFFFFFFFFFFFFFFFFFFFFFFFFFFFFFFFFFFFFFFFFFFFFFFFFFFFFFFFFFFFFAA
:203A3C00FFFFFFFFFFFFFFFFFFFFFFFFFFFFFFFFFFFFFFFFFFFFFFFFFFFFFFFFFFFFFFFF8A
:203A5C00FFFFFFFFFFFFFFFFFFFFFFFFFFFFFFFFFFFFFFFFFFFFFFFFFFFFFFFFFFFFFFFF6A
:203A7C00FFFFFFFFFFFFFFFFFFFFFFFFFFFFFFFFFFFFFFFFFFFFFFFFFFFFFFFFFFFFFFFF4A
:203FFC00FFFFFFFF180B0018B5400011BD400011C144001100000000000000000000000044
:20401C0000000000000000000000000000000000C1400011C340001100000000000000005E
:20403C001149001105440011C7400011C7400011C7400011B1420011C740001121430011C6
:20405C00C7400011C7400011C7400011B5490011C7400011C7400011C7400011C74000118D
:20407C000000000000000000C7400011C7400011C7400011C7400011C7400011C740001194
:20409C00C74000110348854600F050F800480047D95F0011180B00180448804704480047E5
:2040BC00FEE7FEE7FEE7FEE7FEE7FEE725490011A140001130B50B46014600202022012411
:2040DC0009E00D46D5409D4205D31D469540491B2546954040191546521E002DF1DC30BDD5
:2040FC0070B500242546002801DA01244042002901DA01254942FFF7DDFFAC4200D040427F
:20411C00002C00D0494270BD0549064A08685043054A801808604008704701490860704777
:20413C00780100186D4EC64139300000064C0125064E05E0E36807CC2B430C3C98471034FF
:20415C00B442F7D3FFF7A2FF18BA001138BA0011024688000549411808688003C00F03D0FA
:20417C0009680905890D11807047000070400040F8B52D492B48886100204861C8617F22C4
:20419C000A6248628862C86208634863264C274A40342260244B264AC0339A60254A6260ED
:2041BC00254ADA60254A1A601A61C86088601E4A8032106250629062D062D8632062206324
:2041DC006063A063E063106050609060D060106150619061D06150631063A062184DE86061
:2041FC00184EF06117484030026A5208520002628A69012002438A610A6802430A60002715
:20421C00FF20F53000F0B8F800F02CFC7F1CBFB2142FF5D30020C043E062A860C007F061EA
:20423C00F8BD000001040000004000403F3F2C2CEFEF43432C2C2C734343437373737373EF
:20425C000041004000500050054908B580004018006869468005800D0880088808BD000038
:20427C0050C001480748064981617F21C16105480549803001600549C160054941607047C6
:20429C000104000000C0014825BF6F9DE4E9E9EBD4D4C800F8B5194EB088184C174DC00718
:2042BC0001272034403D002805D02089C00702D002F024F8AF81B088800706D520898007A2
:2042DC0003D501F0FFFF0220A881B088400706D52089400703D502F049F80420A881B088D6
:2042FC00000706D52089000703D502F023F80820A8810348816939438161F8BD40C0004052
:20431C0080510050034881690122120411438161704700008051005010B515490320088214
:20433C00001F88802820088100208881104A203A90821083908308800D49203108830C4BC3
:20435C00403318808883888277240C800882E524A4010C810F248C80054960310880054842
:20437C00988102209882402090800002908010BD20C0004090BF0000282148430C4A81B2B1
:20439C00906980B2884208D3411A89B293698B4202D993698342F9D370475369091A591A61
:2043BC0089B293698342FCD390698842FCD8704700E000E009482B23836009490162C214FB
:2043DC00C26041620361816200234361C16282610163C1610349416070470000000001407D
:2043FC00FFFF00009E8C000070B50B4CE0690B4DC00706D0206AC00703D002F0E9FD0120A2
:20441C002860E069400706D5206A400703D502F00DFE0420286070BD40510050805100500C
:20443C000C480B49C1610169090C09040161416A094A114041620949CA6904231A43CA6182
:20445C004168074A090C090489184160704700000303000000400240C7FF0000404000500D
:20447C00853000000B480A490162016989B20161416A094A114041620849CA6903151A4370
:20449C00CA614168064A89B289184160704700000303000000400240F8FF00004040005059
:2044BC000000853070470000124900200860486230228A62CA62086301224A638863C8632C
:2044DC000D4B0522DA610E4A0C4B536190620D4B53621062084A803A50610B4A1060506000
:2044FC009060D06010615061094A08481060C007C86170470050005040510050000F000311
:20451C0000600050FF03FF0300E400E05104000000E100E010B5054C2068C00705D000F0C7
:20453C0069FDA06801210843A06010BD000002480748016806229143016001684906490F48
:20455C000129FAD103480169802211430161704700E00148404000500748016806229143D9
:20457C00016001684906490F0129FAD10021C160026002484261704700E001488050005028
:20459C0070B5134900200A6804231A430A60114D114E2C461034114A2B46183341004118DA
:2045BC00715C012904D0142904D0182904D004E0156102E0546100E09361401CC0B204282F
:2045DC00ECD300F0B1FB06480068804770BD000000400048CC000018BD0000183001001830
:2045FC00F400001870B5184CE0780025002802D0E57000F0A9FA207904281ED32571A06857
:20461C00401CA06000F07CFBE0600006000E04D0A56025706570A5700DE07D22A068D200A9
:20463C000121904200D361707D225201904202D3A2602170A17000F07DFC6079202802D32A
:20465C00657101F01BF970BD3001001810B5FFF761FF10BD0548C178491CC1700179491C0A
:20467C0001714179491C417170470000300100180948084981610169090C09040161C1693F
:20469C00064A1140C1614168090C0904491C4160704700000303000000C00140C7FF0000E6
:2046BC00094808490162016989B20161C169074A1140C1614168012289B212048918416085
:2046DC00704700000303000000C00140F8FF0000064805494163064A0021D160054A302187
:2046FC00D162372181637047313135370040005080510050005000500A480121C16037216C
:20471C0009040162002181600648802240300261044AC032D1600321C16202490B20803169
:20473C00C8627047004000500C4904204860002088600861C86048618861086012224A6258
:20475C00886210220A63C8624863886308620349403148600861C860704700000080024813
:20477C000109054A4901891809684007400FC140C807C00F70470000008002480848017BE6
:20479C000A48084A084B0078012900D00021022803D0032800D11970704711707047000002
:2047BC00D80800184E0100184F0100180A010018F0B572B62548416A0226B14341622348E4
:2047DC0098228030C2620027C763A823C362C2621E4940310C6BC0252C430C63C362C2626F
:2047FC0010240463C362C262A0244C60C362C262F4018C60C3624C6834434C604C68082542
:20481C00AC432D022C434C604C680425AC432D022C434C604C68E407FCD0C2620F63C36207
:20483C000A4C256835432560094C8C61C2624C6901252C434C61C36200BFC2624A6952080A
:20485C0052004A61C36262B6F0BD0000005000500113000010B51148016840680F4880306B
:20487C00C06A00F017F9012000F0F0F872B698210B48C162C06A400707D409490220403969
:20489C00086040BF20BF20BFFEE705488038C169C2041143C16100F0B9F810BD0040005089
:2048BC008050005006487F214163022181638021C1630348012140300160002101617047E6
:2048DC0080500050044800224260012141601323036102604160704700400248044800227D
:2048FC00426001214160132303610260416070470060024810B506F0FDFA02480168491C6F
:20491C00016010BD7401001810B5FFF751FF00F07DF810BD704700000648054981600161ED
:20493C0014214160002101600221C161704700003CF600000040004810B5FFF7B3FFFFF7EA
:20495C00DBFEFFF715FCFFF78DFCFFF7E5FCFFF731FDFFF701FEFFF763FDFFF783FDFFF72A
:20497C0087FEFFF79DFEFFF7B3FEFFF7DDFEFFF7A9FFFFF7B3FFFFF7CFFFFFF7CBFF00F0D3
:20499C002BF800F041F8FFF78FFD10BD10B5FFF761FEFFF727FE10BD10B50C48406BC007D3
:2049BC0007D00B4C2068C00703D0FFF74FFE0120A060084CE069800706D52068000603D5C2
:2049DC00FFF7E4FF8020A06110BD000000500050000002480040004809487021016009496D
:2049FC0000228A6082220A610622CA6001228A60816811438160816802221143816070470A
:204A1C000000024880500050704700000C480B49416100218161026904231A43026102694F
:204A3C0002231A430261026901231A430261054A3F2050630448416001707047409C0000D4
:204A5C0000E000E0006000507001001880070349000E48630249012008707047006000506A
:204A7C00700100180849094B4A6800209A4202D80A78012A06D1064A3F20506300204860B6
:204A9C00087001207047000070010018BB020000006000500248016949084900016170474D
:204ABC0000E000E030B47446641E2578641CAB4200D21D46635D5B00E31830BC184702E078
:204ADC0008C8121F08C1002AFAD170477047002001E001C1121F002AFBD1704710B54B7864
:204AFC000C78190202462143537814781A0249BA4B084B40DB0089084B4099B2224393239E
:204B1C00002052BA5940914200D1012010BD000070B50C4E3078800713D53446083CE07975
:204B3C00401CC0B2E0710A280BD30C2809D30025E57000F043FB3078FD2108403070E5716E
:204B5C00E57070BD0401001810B508490878C20704D040084000087000F00AF80348401ECC
:204B7C00407A002801D000F0AFF810BDFD000018F8B5374DFB27E9782E4628460836807821
:204B9C0000240B00FFF78EFF070F050C10344D4F4D00552802D000F0ABFA42E0022021E0CA
:204BBC00EC7000F071FFF8BD2A492B4B0A786979571AFB18587033780E273B433370EC7171
:204BDC008A4203D12A79142A0ED0AC81AA898018020A8018C0B2A881491E0806000E6871C7
:204BFC00E1D10420E870F8BD1B4A1278AA81EDE7297BC943C9B2A981884208D017480078FA
:204C1C003C2801D100F0EEF900F0D8FA01E000F0CFFE3078FD2108403840F7210840307085
:204C3C00EC71EC70F8BD0C490C31097AEC70814208D00748801D017889088900017000F0FE
:204C5C00BDFA01E000F088FF307838403070F8BDFC0000180D010018F00800180B01001846
:204C7C0070B5154A1178931F8807800F022810D1124801240470124C0625A07A114EDD70EE
:204C9C0075682D0A2D0205437560207288088000107010788007800F01280BD1084C05205A
:204CBC00D8700C3CA17A601C085C00F0B9FAA07A401CA07270BD000002010018D8080018E2
:204CDC00FC080018000002480B4A507A401EC1B20A485172401840789389C018030AC01864
:204CFC00C0B29081002905D10449C0430C3188720020908170470000FC000018F008001883
:204D1C000249002208880A80704700001001001804494889002802D0401E488170470020FA
:204D3C0008707047FC00001810B500F0CDFD002010BD000003480168012292029143016008
:204D5C000020704700E100E00348016801229202114301607047000000E100E010B50A48F0
:204D7C00A5210170002282700123014620310B70064C84620A730649016306494163837245
:204D9C00C281C27210BD0000B8080018EC00001899470011E95F001170B5254C254E20461E
:204DBC00418F2546207A3C3D22466860527A083427280FD004DC102808D0222804D112E022
:204DDC002E281CD03E280AD011201FE0104600F093FA17E01046A11C00F04CFC12E0204698
:204DFC0000F02AFD0EE01002A17822794018E17880B209028918B18000F0C0FA02E0601C04
:204E1C0000F0CAFC00280DD080280BD07F21297221786972A872032007497080096800F0AB
:204E3C001BF870BD024900203C31888170BD00007C080018EC000018F8B9001110B5054B91
:204E5C001A78140705D0120912011A705A1E9161506110BD55010018F0B58C463049314B3A
:204E7C0009781C78FD25002249072C40002906DAF720044000201C70D91E08614EE0294EEC
:204E9C00294FB61E357829462D072D0FB84208D90809012801D820353570F72004401C704F
:204EBC00F0BD35701F4C6146E41E21611D4E1F4C367802273E4324781D4FC5B206281AD920
:204EDC003C70040A10273C43194F7C703C46A5708D5CA718521CD2B2FD70052AF8D3114900
:204EFC00C91E401FC8800520888100208870082006431E70F0BD3C707D70824201D28C5CFE
:204F1C0000E0FF24BD18521CD2B2AC70062AF4D308200643034900201E70C91EC880F0BD51
:204F3C000C01001857010018FF0F0000160100182501001810B500F005F8FFF7E9FDFFF7C1
:204F5C00E7FE10BD10B522490878C20704D040084000087000F060FE1E4B1F4C18781F4A1B
:204F7C00010701D4410725D52188491C89B221801B4CA14220D901070AD511780C09012C17
:204F9C0003D80907090F50311170F52108401870C0B2410710D511780C07240F012C03D894
:204FBC0009090901C91C117040084000FB210840187001E00020208010780109012903D8A7
:204FDC000007000F012801D900F0FAFD10BD00000C010018570100181401001855010018B8
:204FFC001A0400000249F52208781040087070475701001870B5FFF79DFE1F4908801F4998
:20501C004A681F4CA2700968651C49072A78C90FFB2389001A400A432A70FFF795FE1948B7
:20503C001022018801261143018028784107002906DB00F0C3F8A078002800D1E67070BD6C
:20505C00E1780022052904D00029F8D03043287070BD0D48A178007A884209D00848E27061
:20507C00801D017889088900017000F0A7F870BDFFF7F6FD70BD000012010018000002482C
:20509C00FC00001810010018FC08001870B51649002408784D1E40084000C006C00E087074
:2050BC00AC702C7111486C7184724460447204700472481D0470EC71861CAC810B4A6C7273
:2050DC00002034700C3A1454401CC0B20B28FAD3204640210843307000F00AF83078BF2148
:2050FC0008403070EC7070BDFD000018FC08001810B52349002008600868802290430860EC
:20511C0008684022104308601E48826852085200826082680E239A438260C2685209520156
:20513C00D21DC26082220261836801221343836042613823436243690624A3434361086881
:20515C00102318430860104801689302194301600C488038416B11434163416B02229143D6
:20517C0041630A4801681943016009488168FF2212049143052212058918816010BD000025
:20519C00000002488050005000E100E000E200E000E400E0074A02231170074A51711071B7
:2051BC000320D070104608300178194301700020D07170470D010018FC00001870B5FFF72F
:2051DC00B9FD124D124C28802078010701D4400713D51048012202730F490888030A02D03D
:2051FC000423184308800D48007848700B8813430B803C2801D100F0E3FC2078F321084097
:20521C0020702888FFF7A0FD70BD00001201001804010018D8080018100100180B010018E5
:20523C000B4A0C4910724B681B0A1B0203434B601078401EC1B21170074A10788008800085
:20525C00002902D0401C10707047801CFBE70000FC0800180000024802010018F8B50F46A3
:20527C0014461E4900221E4D4A720523EB700C701A4E1C490C3E0C70142806D0AA81FFF743
:20529C0059FD19490880002107E03078A881F6E77A5C7318491C5A7089B2A142F8D3FFF78D
:2052BC0053FD0E4A1078401EC1B2697270184078AB89C018030AC018C0B2A881002901D12F
:2052DC00C04390727078FFF7ABFF05490120B07208310878042210430870F8BDFC08001819
:2052FC00FC0000180D0100181201001801490020C8707047FC000018024610B51C4800242B
:20531C00408F022801D013242FE0194B3C33012A06D0A520022A06D0032A11D0122424E07E
:20533C0000F0C8FA10E0997A012904D019785A2903D0332419E0222417E00121D97202E0DB
:20535C00997A0229F7D018709A72094850213C380172997A4172074902204880D97A002973
:20537C0003D105490968FFF777FD204610BD00007C080018EC000018F8B90011F8B5AC4ADC
:20539C000024538FA94D3C3AAA4F2146032B03D0052B6FD0132443E1A74E831BB0426AD095
:2053BC0025DCC62809D010DCC22806D006DCAA2872D0C02801D0C1286FD1C8E0C32803D01F
:2053DC00C42801D0C528F7D1C1E09B4EF61E831BB0426CD006DCC72871D0D02855D0D128AD
:2053FC00EAD15BE0012B6CD0022BE5D172E00126B6029D1BB34276D011DC1B2B74D006DCD3
:20541C000B2B72D00C2B71D00D2B46D1BBE08B4D5B1977D0012B7FD0022B3ED185E0884E11
:20543C00AB1BB54214D00EDC0B2D73D01B2D72D0844BDD4231D1844E5518735C491CEB7200
:20545C000929F9D3C6E0012B0BD0022B25D113E07D4E2836735C5518491CEB720529F9D34E
:20547C00B8E0794E1036735C5518491CEB720929F9D3AFE0B3E03CE0734E103E735C5518E6
:20549C00491CEB720629F9D3A4E06B5C5618491CF3720429F9D39DE096E09EE0634E361D42
:2054BC00735C5518491CEB721429F9D392E0674E5518735C491CEB720C29F9D38AE046E013
:2054DC00FFE7624E0C36735C5518491CEB723829F9D37FE05D4E4436735C5518491CEB722B
:2054FC002829F9D376E029E05DE03BE042E009E012E0564E6C36735C5518491CEB7228292A
:20551C00F9D367E0524E5518735C491CEB720C29F9D35FE03FE04EE04D4E0C36735C551818
:20553C00491CEB723829F9D354E0494E4436735C5518491CEB722829F9D34BE0444E6C36A1
:20555C00735C5518491CEB722829F9D342E00307404D5B0D5E19735C5518491CEB72242931
:20557C00F9D337E03C4E5518735C491CEB721329F9D32FE0384E8036735C5518491CEB7253
:20559C003929F9D326E0354E5518735C491CEB722129F9D31EE0324E5518735C491CEB72A8
:2055BC001D29F9D316E02F4E5518735C491CEB724029F9D30EE02B4E4036735C5518491C99
:2055DC00EB724029F9D305E0274E5518735CEB72491CFAD0002C17D022E0312420E0234925
:2055FC004618144989880D0ACBB2002E1AD0552EF3D111263606D5720D4D89193C3D2B7303
:20561C0009782B465973032162231372030A53729072C91C88B2164978800968FFF71CFCB9
:20563C002046F8BD0326F606E5E7000000C000117C080018EC000018D514000003FCFFFFEB
:20565C000ED90000F526FFFFD0CF001120C00011C0C0001100C4001100C8001100C9001174
:20567C0000CA001100CC0011A0000018ABDDFFFFF8B90011F8B5054642480024408F821E41
:20569C00032A01D313247AE0012D02D0022D03D004E00228F6D101E00428F3D1394E002706
:2056BC003C36012D03D0022D2BD0122467E030785A280DD034488069FEF72FFD0027FEF70B
:2056DC0023FD0146F019C170C17800290CD00EE02C4A00203C3A3118CF701118401CC0B256
:2056FC008F720228F7D325E0C178491CC170C17824483C38C0197F1CFFB28172022FDED3B2
:20571C0018E0F078002802D13079002815D000200A5C3318DA71401CC0B20228F8D3F11C70
:20573C00F01DFFF7DBF9002809D0B7705A203070F7703771002C0ED021E02420F8BDB078F9
:20575C00401CB070B078022803D31048F0813620F8BD3524ECE70B4867213C380172457210
:20577C000B48012D02D0022D02D003E0042100E002214180074940880968FFF76DFB2046A0
:20579C00F8BD00007C08001800E000E0E2040000EC000018F8B9001170B5017842780902CD
:2057BC00891800240122EE2932D004DCAA290DD0B02909D11BE01748081803D001239B027B
:2057DC00984201D1144813E031241FE08378C0781B021818114D124BA84201D11A7008E0F5
:2057FC000E4A521C904204D10020187001E00D4802700D486E2202720A0A427281720B4968
:20581C00032048800A490968FFF726FB204670BD0848EDE710EBFFFF4D010018010B000084
:20583C00A10000184C01001840080018EC000018F8B900115001001810B50024022901D0BA
:20585C00132010BD4178002901D080290DD008487E21017200214172064902204880064935
:20587C000968FFF7F9FA204610BD8024FBE7000040080018EC000018F8B9001100B50B4AC9
:20589C00907A012807D09089411C91810849884201D300F00FF8D089002806D0D089401E66
:2058BC00D081D089002800D1907000BDB80800187102000003480021818101218172A521D8
:2058DC0001707047B8080018F8B5FFF7DFFB00F077F9324A00201146508114230C310B701C
:2058FC008B7134234B7012238B707823CB7056230B714871FF2111705070911D0880091F0B
:20591C0008701081D0700022CF1C254DBF26500013182249E85C091D08708107C90F04464C
:20593C004C404107C90F4C40C106C90F4C40A1013040014388070C076040CC0660408C064C
:20595C006040C00FC0434906C001490E08433870E854144C002059191B190C5C1C54401CC9
:20597C00C0B20328F9D3521CD2B2042ACFD30B4A00201332FF211346083311541954401C44
:20599C00C0B20828F9D3084A08490020135C0B54401CC0B22028F9D3F8BD00000A01001832
:2059BC00BD00001808090018D0B90011CC000018F8B52D4F2A4C2B4A398823780420084370
:2059DC0012780225294EFB2B16D0FF2B34D0090A00D038807A70388828433880FFF7AAF948
:2059FC00234930800E78082E2ED82278224B0021D200204FD21825E0090A00D038807A70D0
:205A1C00388828433880FFF795F9194930800C78082C0AD80021194B164A04E055186D783C
:205A3C005D54491CC9B2A142F8D3FFF78DF914480122017811430170F8BD7B185B78535410
:205A5C00491CC9B2B142F8D3FFF77EF92078410041180C480818417829434170F8BD0000EE
:205A7C000A0100180B01001810010018120100180D010018F0080018CC0000181D0100181F
:205A9C000C01001808090018F8B52A4900270870294B2A492A4D02463C463C2815D07D28C7
:205ABC001AD0BF2835D0FE2833D0264E002461006118715C814232D160002C7020188519F4
:205ADC006878C10912D0142611E0FB222A7018700C7008210D201FE01B4A1278920718D56E
:205AFC0018700C70082219490D2010E00D26C0071A700FD016480078012816D00F482038E6
:205B1C00006B80471349E0004118AA783046FFF7A5FBF8BDA9783046FFF73CFBF8BDFF2126
:205B3C00641CE4B22970042CC1D3002FF6D1FFF7DDFBF8BD0B010018F0080018D808001831
:205B5C000A010018080900185701001825010018FC000018CC00001870B514490888020A19
:205B7C0002D0042210430880114D0223287848700A88104C1A430A80A179814202D0617AFC
:205B9C00814202D10C48406B804728787D2801D100F0F4F909480078042806D24100401833
:205BBC0000194178FD221140417070BD100100180B01001808090018B80800180A01001838
:205BDC0030B5124911200870491E0020C880088148818870086188814861CB1C88611A782A
:205BFC00FD24520852002240FB242240F7252A401207120F1A70064A08711080054A13785C
:205C1C00234013700870012030BD000055010018140100180C010018F8B5B64AB64E107803
:205C3C00B41E651E7E280AD03178F5231940317021780907090F103121700021E980B04BA0
:205C5C00FB221B78AD491340AA4A09785278884205D07F2803D0A94FBF79B84209D11709B3
:205C7C0007D1A44FBF78B03F072F02D8A44803701DE1884201D07F283FD11109A14F090144
:205C9C0004D010293AD02029F6D17DE03968322008809D4801683868FFF7D0F86969002942
:205CBC002BD0AA69002AFBD092480B8840780007000F834221D3954F00233B8008808D4FAB
:205CDC00184604E03B189B781354401CC0B20B788342F7D82078010703D100090001401CDA
:205CFC002070012028703078FB214008400008403070834802780A4002709FE03968322098
:205D1C000880814801683868FFF798F87948417880780907090D0143062973D96869002837
:205D3C0070D0AA69002A6DD003888B4221D3774F00233B80724B04271B783B43704F3B703A
:205D5C0001806C4F00203B18DB781354401CC0B20528F8D338782871491F298130780121D3
:205D7C0008430007000F0421103008433070052054E0207800090001801C2070307840083F
:205D9C0040000007000F56E03178CF0756D02F79B84245D112070809120F904240D15B4A2B
:205DBC0000271780288906280BD9801F28810120014308070909000F491C06220901084387
:205DDC0014E002464808400000072F81000F4C4930700B702178FB270B0703D109090901A8
:205DFC00491C21700121884329703840307068898446801800906969098888421ED80020CD
:205E1C00AF6908E01AE03B4909188B7861460918401C7B54C0B29042F5D3009868810DE057
:205E3C0020780207120F012A03D800090001001D207048084000FB21084030702D4F387807
:205E5C007E2829D13078C10731D180072FD478780007000F06282AD86969002927D0AB694E
:205E7C00002B24D0088000203E4604E0321892781A54401CC0B20A788242F7D82078010792
:205E9C0003D100090001401C20701B49FB22087840084000104008703878002807D11C48B7
:205EBC0008220188114301801A490120087020780007000F01281BD111480078400717D47C
:205EDC002878012814D1002028700A480B4900780978884203D07F2801D07E2808D10A48BB
:205EFC0000680078B038082802D30B4840688047F8BD00001D01001857010018160100186D
:205F1C000C010018F4B90011F0B900111401001810010018EC000018F4000018F0B5144C5D
:205F3C001449A078144A401C0007000FA070097811702021084350700020A1892569FF23A8
:205F5C00E688B04204D24618AE5D1718BE7003E01618B3700026E680401CC0B20628EFD3AB
:205F7C00E088002803D0801FE080891DA181F0BD54010018160100182501001810B50D4939
:205F9C00002008800C48C088002802D0FFF7C6FF10BD0949491C0878020903D10007000FF3
:205FBC00103008700449F522C91C08781040087010BD00001401001854010018FEF7BCFC68
:205FDC0004F0E0FF05F00CF8FCE700000848017B012909D10021017306480078022804D0CD
:205FFC00032801D10448017070470448FBE70000D80800180A0100184F0100184E010018FC
:20601C00884204D0401A504309020818011208B27047000010B5044672B60120FEF716FDCA
:20603C000449204609688847C4B2FEF71BFD62B6204610BD08BA001170B545780446124929
:20605C00E80140188078FF2800D10020401CC0B2FE2800D90120214620310871AA20487131
:20607C00681CC0B26070082801D30020607006490006400C203940182422A11C00F006F807
:20609C00002800D0657070BD20C4001170B514460D46064672B60120FEF7D8FC2246064C0B
:2060BC000023246829463046A047C4B2FEF7DAFC62B6204670BD00000CBA001138B5C11DBB
:2060DC00FF31FA318A6E8032527C002A09D0184A09239B01C418257DA800105CFF2803D018
:2060FC0003E0134A403AF3E70020401CC0B2FE2800D901206B461870886D5870886D000AED
:20611C009870886D000CD870207D401CC0B22075102801D3002020750006800D8018042200
:20613C001946FFF7B3FF002800D0257538BD000040CC001110B500F075F805F0DFF8044C5A
:20615C002078002803D000F03BFB0020207010BD50010018034610B5FF3300214133FF228E
:20617C00198463321154428FC2870922920184181A462171C032D187A181D1845986598786
:20619C0019879987136E064C5B8863431B0C938411235B01C018417481740120908610BD73
:2061BC0000C4190010B5034800F008F8024800F005F810BDCC0100185005001810B5817CCE
:2061DC000B00FEF76FFC0504070A0D10060004F0FCFF10BD05F044F810BD01F0BFF810BDCC
:2061FC0001F002F910BD02F05BFF10BDF8B50646374600242037BC710078254601280FD1A7
:20621C00304600F019FB30198078641C4019E4B2C5B2212CF7D3F878A84201D10120B87134
:20623C00F8BD000070B520490120096888471F4C0028606006D00121217061781C4D012956
:20625C0002D016E00021F7E700282BD14420607072B60120FEF7FAFB164A01211268284666
:20627C009047154A0121126828469047FEF7FAFB62B66078002815D16068002812D05620BB
:20629C00607072B60120FEF7E1FB0C4A01211268284690470A4A0121126828469047FEF797
:2062BC00E1FB62B670BD000004BA0011A00000186868868610BA001100BA0011FCB90011D2
:2062DC0014BA001110B500BF00200A4900BF0A68D2060AD408488178002905D1012181708A
:2062FC000021417000F0EEFE10BD401CC0B20A28ECD310BD00800248B800001810B500BF5D
:20631C0000200A4900BF0A68D2060AD508484178002905D1012141700021817000F0D2FE59
:20633C0010BD401CC0B20A28ECD310BD00800248B800001810B500BF00200A4900BF0A6A24
:20635C00D20704D0401CC0B20A28F7D310BD064801790029FAD1012101710021C17000F04B
:20637C00DDFE10BD00800248B800001810B500BF00200A4900BF0A6AD2070AD00848C17859
:20639C00002905D10121C1700021017100F0C6FE10BD401CC0B20A28ECD310BD0080024825
:2063BC00B800001810B5034803F0EEF8024803F023FF10BDCC0100185005001870B504461B
:2063DC00FF344134A17B024689072032022500290CDBA17B890609D5C17F002902D111782E
:2063FC00002903D0617A002900D16572132149010958FD26897C00290BD0A07B800759D5FE
:20641C00A07B800656D5A07BC00650D552E0E07370BD817C8B0701468031002B24DA027DAD
:20643C00092A06D0407D092803D0627A022A04D00DE0607A0228E6D03CE0A07BC00606D41C
:20645C00088B252803D3E07B1023184302E0E07BEF231840E073022A2CD1A07BC00629D480
:20647C00088B252823D325E075231B5C002B06D0617A0229C7D0A17B89071ED41AE0637A03
:20649C00022B0BD0A37B9B0714D5A37B9B0611D5C07F002802D1107800280BD0A07BC006E4
:2064BC0008D4088B7C21FDF705FE3D2902D2E07B2843ACE7E07B3040A9E7A17B8906F9D556
:2064DC00C07F00289FD110780028F3D09BE70000F0B50C78C11DFF31FA31037C0A4601267C
:2064FC00194DC03AA34205D1877A002F02D1177D052F05D0A3420AD1877A002F04D006E01B
:20651C006878052813D118E0D77D012F05D0A34210D1807A002804D00CE0A878012806D155
:20653C000BE0107C984205D22B78984205D0486E067102E0496E00200871107C2870107DB5
:20655C006870D07DA870F0BDAD000018F8B5334E00257079002803D07078002800D13570B3
:20657C002F4F7879002803D07878002800D13D702A482C4C8030807EC007002803D0E07B4A
:20659C00BF210840E0730021244800F051F82649234800F04DF801F041FE01F0E3F8234828
:2065BC000090006E807C002801D100F031FA1F481D49C038428E01208003083982420BD98E
:2065DC00628E824208D98878401CC0B288703E2803D935703D7000E08D701048717B20303F
:2065FC00002913D1797B002910D1317B00290DD1B17C89070AD5B97C890707D501780029E2
:20661C0004D10099096E897C002903D0857403F0CDFBF8BD01218174F9E70000CC01001833
:20663C005005001890060018A8000018CC030018F3B50446807F25460026203583B0012849
:20665C0006D15E480078002802D00120287000E02E702146C0310879820702D54008400037
:20667C0008712046217860300090E71D2038FF37FA37019040293ED2204600F099FFA07C8F
:20669C008007204602D501F0D3F901E001F001FA207F032800D1267000998979002908D0C3
:2066BC00A17C890702D52178C90702D12670012129750099C979002901D1032802D126703E
:2066DC00012028750198007D01281FD126702875A87B002808D1E87A002805D1687B0028EF
:2066FC0002D1A07B002804D00121B86D09050843B865A6730AE02046FF304130017D41759A
:20671C00C17D0176017C4174817EC1760198C07F810605D52178C90702D026700121297576
:20673C00C00605D52078800702D5267001202875786E007801280BD12878002808D1386EA9
:20675C00807C002804D16078400600D42670A6730098817B2046FF302130002906D0217871
:20677C00002903D0817D0122114302E0817D4908490081758A0703D549082670490081758D
:20679C006078002800D16676E87A002808D1A87B002805D1687B002802D1A07B002800D0BB
:2067BC000120A8710498002806D0A07C800703D52146049804F03EFB05B0F0BD3101001892
:2067DC0010B50748FFF726FC05488030FFF722FC0448FFF71FFC0448FFF71CFC10BD0000DC
:2067FC0000C8001100C9001100CA001110B50E48FFF710FC0C488030FFF70CFC0B48FFF787
:20681C0009FC0A488030FFF705FC0948FFF702FC07488030FFF7FEFB0648FFF7FBFB0548A4
:20683C008030FFF7F7FB10BD00C4001100C5001100C6001100C7001110B54178064AC901E5
:20685C008A18002144181378491CC9B2521CA3702429F7D310BD000000C400114D22D20017
:20687C0012588032527C002A00D01022438F89181B0A8B70428FCA700246203293790B7126
:20689C00D2794A71827C8A71FF226732125CCA71027A0A72427A4A72092292018218527CE4
:2068BC008A720246403213881B0ACB7213780B73137A4B7393881B128B731279CA73C07B6C
:2068DC0008747047F0B5044689B0002001466D46221892782A545118401CC0B2C9B221286A
:2068FC00F6D32320015508A841702046FFF7A4FB06000FD12046FFF79FFF00273846211800
:20691C0089782A5C914201D0012703E0401CC0B22228F4D33E4310D0A07A032802D0A07EB0
:20693C0003280AD10020295C2218401CC0B291702228F8D32046FFF77FFB09B0F0BD000036
:20695C0010B526488078012847D125488078012843D124480078002801D000F051F81F498F
:20697C005C3908463C3003F0A5FF1C491C485C39203803F09FFF19483C38C179012904D1C0
:20699C000021C1712038FFF79DFF14481323164A1649203803F008FF134A14490F4839238E
:2069BC0026328031203803F0FFFE0F4A0B48212398320F49203803F0F7FE09481D230D4A30
:2069DC000D49203803F0F0FE0C484168490849004160FDF7ADFDFDF73DFF10BDEC01001834
:2069FC00700500184D0100183804001800C8001100C90011BC07001800CA00110040024049
:206A1C0010B50248FFF706FB10BD000000CC0011F0B5FF4891B00146C67F084640300C9097
:206A3C00488F0C462034069020780A90F9480990C31FFF384138408F04900D46FF35084651
:206A5C00F44A4135C0322946C031926E0591F93B8030896E0F91002E02D10A9900296AD0FC
:206A7C00EB494E7B012E17D1AE7BB60714D5AE7BB60611D502260E70E74E002737700F9EF6
:206A9C0040367789B689BF19069EB74204D800260E704E730C9FBE71DF4E777B012F14D161
:206ABC00099FBF7BBF0710D5099FBF7BBF060CD502273770403257899289BF18049A97421A
:206ADC0003D80022327072739A718A7C9307D24A927C11D492071AD4AA7B920617D5AA7B07
:206AFC00920714D5AA7BD20611D401216173817E4908490081761EE0920708D5AA7B92065F
:206B1C0005D4AA7B920702D40021617313E0627B002A10D0AA7B92060DD4AA7B92070AD4E3
:206B3C00897B002907D1617305998A6D012189040A4305998A65B649B74B6031827E60331D
:206B5C008C46960789799B790893002E0BDA002909D1002B07D1AE4B9B7A002B03D1AE4BDA
:206B7C009B7A002B03D0637A002B06D00AE001236372E3720023637308E0A37A002B01D0D6
:206B9C000123E372930701D40023E372A24EA04B37461B7880365B0620370796002B08DB75
:206BBC009D4B1B785B0604D4012902D00899012915D1510849008176B07E41084900B176D8
:206BDC0093490020087360726073E0728873787205980121806D4904084305998865607A9D
:206BFC00A0728D4B7520E27AC05C0E904221588FC95A0391091A00910399854E401A0190D5
:206C1C004D20C000C058A03660300290002A06D1607B002803D17E48807B002866D030787C
:206C3C000121084330707A487949007B80310B90898C0D91002801D001280AD16046407DCD
:206C5C0000280DD001237249734A0B7000201070CB720B986E49022816D003282DD039E074
:206C7C007C210D98FDF726FA3D2909D201216848694B017000221A7001738274E27128E0F9
:206C9C00634900200870E4E7022008700C98069A4088904201D9801A00E0101A0F9A603298
:206CBC00927A904216DD0020087003220A735A4A9074F87148730C9988710E98002805D19F
:206CDC007C210D98FDF7F6F93D2910D2524801210170C1725049887C800703D54C48007BC0
:206CFC00032808D04A48007B042817D01AE04A4900200870EEE702200870049A03989042B6
:206D1C0001D9009800E00198029A927A904209DD00203F4A0870042313734873B079012138
:206D3C000843B071A87B800602D5A87B800703D53748807B002810D0B07981070DD4344938
:206D5C000A7B042A09D1052240080A734000B071317B0120014331736071A87B800602D537
:206D7C00A87B800703D42A48807B002805D0307BC00702D00120A07302E0A07B012868D135
:206D9C002348027B417A2448052A407A04D0062A2ED0072A38D05CE0327B9446920758D51B
:206DBC001B4B02221A701C4B1A701C4B069A9A4206D31B4B049A9A4202D30A9A002A06D19C
:206DDC00072946D3072844D30A9A002A41D1104B00221A70104B1A700D4B0122DA740E4B1A
:206DFC00DA740B4A062313736246520852003273074A012313700022074B01291A7028D80C
:206E1C0003490A7007220A73034B01221A7009E0CC01001890060018500500183F3A00008D
:206E3C00A82F0000012814D867490020087019460870E2716449FA7108230B73607188734B
:206E5C000A99002901D16049CA735F4948735F494873A87B81065C48007F0BD4A97B89076C
:206E7C0008D45949897B002904D1B179CA070ED089070CD4A97BC90609D40999897BC906E8
:206E9C0005D40999897B890601D403283CD14E49097B002938D0AA7BD20604D5B279D30794
:206EBC0001D0920704D5484B00221A70474B1A70454A08290FD0032833D0108F052806D3A6
:206EDC0005980121806D090408430599886500203E49D074C874B07940084000B071307B63
:206EFC00400840003073307840084000307000206073A07360716072A072E072E97BBF2328
:206F1C001940E973907310730798807E810704D5089900290AD001290BD0797A00290AD07D
:206F3C000EE005980121806DC903CDE70120787209E000217972B97A002901D00121F97261
:206F5C00800701D40020F872787AB872F87A002836D01E4C207B002801D0012805D10E98D0
:206F7C0000280FD001202070E072A07C800725D5207B022822D1207004990398884212D919
:206F9C00009811E007987C21C08BFDF793F83D2906D20120207020730020A074F871E4E75C
:206FBC0000202070E1E701980299897A884205DD0020207003212173F872607311B0F0BD47
:206FDC00024900200873F9E7CC0100185005001870B51148018E491C018600BF0F490A6AF9
:206FFC0009685207D40F0C4B8907CD0F403B0C4A598FAC4203D1491E5987917C02E0491CEF
:20701C005987D17C81770748006A034980B2064A403902F0C9FC70BD0C020018008002485B
:20703C00A0C00011000001403804001870B51148418E491C418600BF0F490A6A0968520760
:20705C00D40F0C4B8907CD0F403B0C4A598FAC4203D0491E5987917C02E0491C5987D17C2C
:20707C0081770748806A034980B2064A403902F09BFC70BD0C02001800800248A0C0001165
:20709C0000000140380400180948826809490A4200D0C16008498A680848024200D0C860A6
:2070BC0007494A6823200001024200D08860704700400240E060000000C00140A020A02078
:2070DC0000E0014870B51048018E491C01860F490A68096AD206D40FCD070346403BED0FE7
:2070FC000B4A598FAC4203D0491E5987917C02E0491C5987D17C81770648808A0249064AC3
:20711C00403903F067F970BD900500180080024840C1001100C00040BC07001870B5104879
:20713C00418E491C41860F490A68096AD206D40FCD070346403BED0F0B4A598FAC4203D1AD
:20715C00491E5987917C02E0491C5987D17C81770648008B0249064A403903F03BF970BD12
:20717C00900500180080024840C1001100C00040BC07001805490A6BFF2301331A430A63AC
:20719C0003490A6902800020086170470060005000400050F8B500230446022020709C4664
:2071BC0018464B490026C7017A1831461578002D03D0FF2D01D0012604E0491CC9B2521CE7
:2071DC002429F3D3424920317A189178D278002E08D0002903D0FF2901D0AA2A02D00020FE
:2071FC00207009E0FE2917D0994201D90B466070401CC0B20828D4D3604600282ED0002184
:20721C0033480026CF013A1830461578002D06D0FF2D04D0012607E000236070EFE7401C56
:20723C00C0B2521C2428F0D3294820303A189078D278002E08D0002803D0FF2801D0AA2A11
:20725C0002D00020207030E0984203D9082801D203466170491CC9B20829D1D32078002838
:20727C0023D060781A49C201203152189178D278002917D0FF2915D0AA2A13D1012121706B
:20729C00032817D0072814D11148FEF7C3FE10488030FEF7BFFE0F48FEF7BCFE0D488030D8
:2072BC00FEF7B8FE2078012803D007206070FFF79DFAF8BD0848FEF7ADFE07488030FEF756
:2072DC00A9FE0648FEF7A6FE04488030E8E7000000C4001100C5001100C6001100C70011DF
:2072FC0030B54D21C900095800238031497C1A4600292AD0184C0925AD010F21451929756D
:20731C0000208100615C00290BD0FF2909D0FE291ED0994201D90B462875401CC0B2102830
:20733C00EFD3002A10D000208100625C002A0BD0FF2A09D09A4203D9102A01D21346287544
:20735C00401CC0B21028EFD330BD034C403CD2E700232875E7E7000040CC0011F0B504463E
:20737C00FF34867A4134A178002E12D049084900A1708C468F070346C21D6033FF320146DA
:20739C001D78FA322031002F13DA9B79002B03D00FE001221143EBE7AB070AD4002E08D1C2
:2073BC000B78002B05D1136E9B7C002B01D101238B70526E1278002A01D1002E03D0827D33
:2073DC00012A07D00BE0614649084900A1700321817404E0002282758274CA714270A907A9
:2073FC0001D504218174F0BDF0B5C41DFF34FA34656E0246AF780146603200230126203137
:20741C00012F0AD19779002F07D11778BF0704D4877A002F01D18E70EB70656E2D78012D00
:20743C0002D1857A002D06D0857D012D06D0C57D012D08D015E00221817412E0837586741C
:20745C00CB7143700DE00A4D2B700A4D2E70CB71837443708373A16E40310B8B4387098BFD
:20747C0081871178890701D504218174F0BD00004C01001850010018F0B505468035027845
:20749C002946C031002A0FD1CA7BD20704D02A7D920701D402220270CA7B920704D5427A56
:2074BC00012A01D901220270827CC41D0646FF34D3072036FA34002B02D13378002B14D0A2
:2074DC00A36E0A2780335B7C002BCB7B16D01B0700D50770CB7BDB0607D5037D092B04D074
:2074FC00437D092B01D009230370CB7B9B0715D5D20713D0C27B002A0ED00FE01B0704D54F
:20751C00437A032B01D20E230370CB7B1B07E1D5437A032BDDD2DDE701228273037F0022B5
:20753C00002B05D04F7E002F00D00270022B07D08F7D002F00D00270032B01D10270827309
:20755C0043778B7BDB0603D58B7B9B0600D50270CB7BDB071AD1CB7B9B0717D403781B0725
:20757C0014D4AB7E9B0711D48B7C002B0ED10B7F002B0BD18B7D002B08D14B7E002B05D1DF
:20759C00027075231A54727446231A54E38C23246401A3420AD243789B0707D58B8C5B1CF7
:2075BC009BB28B84192B00D90270F0BD8A84F0BD70B5054600F043F82C462878FF3400215B
:2075DC004134002800D16172A07BC00703D0A07BC00600D46172A07B800703D5A07B8006F6
:2075FC0000D46172284600F0E1FF2846FEF7E6FE284601F057FA70BD30B503460022FF33E4
:20761C0041338118FF3141310C7B64000C730C7B1D7AD540ED07ED0F2C430C730C7BA406F3
:20763C00A40E0C730C7B002C03D00C7B3F2C01D101248C72521CD2B2022AE2D330BDF8B523
:20765C000446FF3405464134A07A2F46C1078037B87BC90F400840000843B873E17A844695
:20767C00EE1DFF36387DFA36002915D0297B002945D0B26E8032527C002A02D0012A09D039
:20769C000AE008293BD0042906D1A621495D890735D401E0032932D0400840003875A17B3E
:2076BC00A27BC906C90F520852000A43A273A17BA27B8906C90F4900FD231A400A43A27317
:2076DC00A27A29464031002A05D06246920702D40A7A002A16D0A27BEF231A40A273E27AEE
:2076FC00002A04D0820702D40A7A002A0ED0A27BDF231A40A27380070CD501201DE001214F
:20771C000843CBE7A27B10231A43E7E7A27B20231A43EFE7207A022810D003280ED0306EF7
:20773C008288B06E4079FF305530824206D9487D012803D0102801D000200872284601F032
:20775C0055FD284603F0D8FF284601F073F9B87B800702D4387D800703D5B06D202108436B
